:020000040800F2
:10000000005000206D3000088D01000891010008AB
:1000100095010008990100089D01000800000000FA
:10002000000000000000000000000000A101000826
:10003000A501000800000000A9010008AD010008AA
:10004000B5300008B5300008B5300008B5300008FC
:10005000B5300008B5300008B5300008B5300008EC
:10006000B5300008B5300008B5300008B5300008DC
:1000700029160008B530000815140008B53000082E
:10008000B53000086D150008B5300008B53000081F
:10009000B5300008B5300008B5300008B5300008AC
:1000A000B5300008B5300008B5300008B53000089C
:1000B000B5300008B5300008B5300008B53000088C
:1000C000B5300008B5300008B5300008B53000087C
:1000D000B5300008D91600081D1700085D17000884
:1000E000B5300008B5300008B53000080000000049
:1000F0000000000000000000000000000000000000
:0C01000000000000000000005FF808F1A3
:10010C0010B5054C237833B9044B13B10448AFF345
:10011C0000800123237010BDAC0000200000000003
:10012C006433000808B5034B1BB103490348AFF314
:10013C00008008BD00000000B000002064330008FF
:10014C0010F8012B11F8013B012A28BF9A42F7D075
:10015C00D01A7047034613F8012B002AFBD1181A4A
:10016C000138704708B500F07BFF00F0B7FF00F0D6
:10017C007BFD00F05DFF02F0CFF902F003FEFCE71F
:10018C00FEE700BFFEE700BFFEE700BFFEE700BFD3
:10019C00FEE700BF704700BF704700BF704700BF4D
:1001AC0002F084BF704700BF114A536803F00C0380
:1001BC00082B0AD00F4B0E4A0F4852680F49C2F356
:1001CC000312825CD3400B60704753685168C3F3D1
:1001DC008343C90303F1020306D55268920303D487
:1001EC00044A02FB03F3E6E7054A02FB03F3E2E7EA
:1001FC000010024000127A007C330008000000203E
:10020C0000093D0010B50446FFF7A4FF0146204647
:10021C00BDE8104001F0BCB808B50448FFF7F2FF88
:10022C00BDE808400248FFF7EDBF00BF7839000871
:10023C00F03C000870B508B31D4D0E681D4C02E073
:10024C0055F8104F74B321463046FFF779FF00285C
:10025C00F6D12046FFF7D6FF1748FFF7D3FFA86863
:10026C00FFF7D0FF1548FFF7CDFFE868FFF7CAFF8F
:10027C001248FFF7C7FF2B68A3B170BD0C4C0D489B
:10028C000F4E0E4DFFF7BEFF3046FFF7BBFFA068C9
:10029C00FFF7B8FF2846FFF7B5FF54F8100F0028FA
:1002AC00F0D170BD0748BDE87040FFF7ABBF00BF91
:1002BC00243900088C33000894330008F03C000803
:1002CC00743900086C3A0008002878D02DE9F04FFA
:1002DC000E6804460D468DB03046B049FFF730FF2E
:1002EC00002864D14FF0FF37631E009300F04F815C
:1002FC00D5F804B0AA495846FFF722FF002800F0B1
:10030C007F817A1C14BF3B46002307F10104DA46B7
:10031C0008BF032402932B1D01939AF80080009BC5
:10032C00B8F1720F03F1FF3603D19AF80120782A45
:10033C0048D0B8F1740F03D19AF80120782A4FD025
:10034C0050469849FFF7FCFE002800F019825046F1
:10035C009549FFF7F5FE002800F0178250469349A7
:10036C00FFF7EEFE002800F0168250469049FFF78A
:10037C00E7FE002800F0148250468E49FFF7E0FE9D
:10038C00002800F01282B8F1720F03D19AF8012004
:10039C00692A7AD050468849FFF7D2FE002800F02F
:1003AC00098286480DB0BDE8F04FFFF72BBF3046F1
:1003BC0002F088FE471E022F96D98148F2E7814849
:1003CC00FFF720BF9AF80250002DB2D10123A846A6
:1003DC0003937EB97C480DB0BDE8F04FFFF712BF18
:1003EC009AF80220002AABD14FF00108039245463F
:1003FC00002EEFD0019BB14605EB850603F10C0BEB
:10040C0076005BF808ACABF1080350466F490193DA
:10041C00FFF796FECDF8009000283FD1B9F1010FFF
:10042C0000F0AC815BF8043C1A78702A51D15978F1
:10043C0070294ED1997800294BD10B46DDF808A0D4
:10044C00CDF80090D1469A4613E000F07BFC09EB06
:10045C004902711902EB42120A440244D17F09F19C
:10046C00010901297ED14146384682F821A001F0CC
:10047C0091F9A145E9DBDDF80090A9F102090BF136
:10048C00080BB9F1000FBCD138E19AF80220002A10
:10049C0080D14FF00708039245469AE750464C49E5
:1004AC00FFF74EFEC8B9B9F1010F00F08A815BF875
:1004BC0004AC48495046FFF743FE002800F0268163
:1004CC0050464549FFF73CFE002800F04E8143485A
:1004DC0068E76F2A3ED0424864E750464149FFF72F
:1004EC002FFE002840F00D81B9F1010F00F067815B
:1004FC005BF804AC3C495046FFF722FE002800F0A4
:10050C0032819AF80030752B32D19AF80130702B69
:10051C002ED19AF802305BBB0123DDF808A0CDF890
:10052C000090D1469A4612E000F00CFC09EB49020F
:10053C00711902EB42120A440244D17F09F10109FC
:10054C00F9B94146384682F822A001F023F9A145B9
:10055C00EADB90E75A78642ABDD19B78002BBAD19C
:10056C0001236BE721480DB0BDE8F04FFFF74ABE01
:10057C0050461F49FFF7E4FD002800F0F9801D48A4
:10058C0010E71D480DB0BDE8F04FFFF73BBE1B4810
:10059C000DB0BDE8F04FFFF735BE00BF9C3300082F
:1005AC00A0330008E4330008E8330008EC330008FB
:1005BC00F0330008F4330008F8330008843C0008DA
:1005CC006C3B00088C3B0008F03B0008FC33000837
:1005DC00043400080C34000814340008343B0008C0
:1005EC00143B00081834000820340008BC390008FB
:1005FC002C340008503B0008EC3900084C3C000837
:10060C00791C00F0B7806FF000437A1C9F42019276
:10061C0074D0DFF8B4A1009700F094FB009B8146E6
:10062C001E4601330A22184604A9009302F066FD07
:10063C006648FFF7E7FD04A8FFF7E4FD06EB460666
:10064C006348FFF7DFFD06EB46165046FFF7DAFD71
:10065C000024604FDFF880B1604809EB060512E01A
:10066C0095F8223051F82380FFF7CCFD4046FFF778
:10067C00C9FD50460134FFF7C5FD092C05F10B05EA
:10068C0038D057F8040FFFF7BDFD5846FFF7BAFDF9
:10069C0004EB840304EB430333444B44D3F81A3088
:1006AC004F4A504813B395F82310EB7F52F8218032
:1006BC0003B14D48FFF7A6FD4C48FFF7A3FD40469C
:1006CC00FFF7A0FD4A48FFF79DFDEB7F49494A4AD9
:1006DC004A48002BC4D095F82130494852F8238061
:1006EC00FFF790FD4046FFF78DFDC2E74548FFF749
:1006FC0089FDBEE7DDE9002393428DDC0DB0BDE83A
:10070C00F08F4B46002B7FF408AEF7E70246039BB5
:10071C00EBB9DDF808A0CDF80090D146924613E075
:10072C0000F010FB09EB4902711902EB42120A446A
:10073C00024492F8201009F1010971B9414638467A
:10074C0082F823A001F026F8A145E9DB93E6029B91
:10075C00A342BFF692AE00F0F5FA2B480DB0BDE8FF
:10076C00F04FFFF74FBD0346D7E601231A46CEE7FD
:10077C000223D2E60323074601934AE7234811E6F6
:10078C004FF002080390454623E64FF0030801237F
:10079C00454603931DE64FF004080390454618E6C2
:1007AC004FF005080390454613E64FF006080390FA
:1007BC0045460EE64FF008080390454609E61448F6
:1007CC00F0E51448EEE500BFF03C0008A833000843
:1007DC00B0330008943800087439000898330008C6
:1007EC0080380008B4330008BC330008C433000858
:1007FC00CC3300088838000878380008D03300085B
:10080C00D8330008E033000880390008D03B0008DA
:10081C00303C0008143C0008012810D110B50C68BD
:10082C000D492046FFF78CFC60B120460B49FFF7C1
:10083C0087FC58B1BDE810400948FFF7E3BC0848F5
:10084C00FFF7E0BCBDE8104000F080BA00F04AFBB6
:10085C00BDE8104000F0FEBF343400083C34000802
:10086C00183A000810B54FF480740B4B0B48224615
:10087C000021186002F028FD22460021084802F0F1
:10088C0023FD0022074B08481A70FFF7BBFCBDE89C
:10089C0010400648FFF7B6BC04000020CC00002036
:1008AC00CC010020C8000020B8380008F43C000837
:1008BC00002900F0BE812DE9F04F8146B34DDFF8E1
:1008CC00D082B44C93B046182B78032B13D8DFE8A6
:1008DC0003F06F6C190299F80030E25C52070AD4ED
:1008EC00432B00F02A81442B00F03481412B00F083
:1008FC00848100232B7009F10109B145E4D113B0B7
:10090C00BDE8F08F99F800A0BAF15B0F00F0DA8027
:10091C000023BAF10A0F2B70EDD0BAF10D0F4FD0A6
:10092C00BAF11B0F00F0C680BAF1080F00F0D280AC
:10093C00BAF17F0F00F0CE8014F80A3013F0970F45
:10094C00D9D0D8F800B0944F5846FFF703FC0246B4
:10095C00594601320BF1010002F09CFC58468BF811
:10096C0000A0FFF74FFCD8F80030384603F1010A1D
:10097C00C8F800A0FFF7EEFBAAEB0703C01A40F083
:10098C002781FF2BB7D94FF4807200218248C8F819
:10099C00007002F099FC8148FFF734FC8048FFF7A7
:1009AC0031FC8048FFF72EFCA5E799F800A0AFE7D3
:1009BC0099F800A0BAF10D0F02D0BAF10A0FAFD11D
:1009CC00012376482B70744FFFF71CFCD8F80030CD
:1009DC00BB4203D03946744802F0A8FC38786E4A02
:1009EC00235C03F008011B0706D512F8010F235CEA
:1009FC0003F008011B07F8D4A8B34FF0000AD34644
:100A0C006A480DF1080E4EF8042B39B912F8013F63
:100A1C0013B3E35C03F008010029F7D0114601F889
:100A2C0001BB53780A46591C10F801C0014405E07B
:100A3C0012F8013F591C10F801C001441CF0080FBA
:100A4C00F6D10AF1010CFBB1BCF1100F08D00B78F8
:100A5C00E24603F00801D6E7214690F801C0EDE725
:100A6C005348FFF7CFFB4FF4807200214A48C8F877
:100A7C00007009F1010902F027FC4A48FFF7C2FB9C
:100A8C00B1457FF421AF3AE70299DFF828B14A4823
:100A9C0004E05BF8100F002800F0AB800191FFF729
:100AAC004FFB01990028F4D15046DBF8043003A920
:100ABC009847D8E7022309F10109B1452B707FF45F
:100ACC0003AF1CE7032309F10109B1452B707FF437
:100ADC00FBAE14E7D8F800002F4FB8427FF60BAFEF
:100AEC00C01B44D13548FFF78DFBD8F800B00BF193
:100AFC00FF3A5046C8F800A0FFF72CFB59460246B7
:100B0C00504602F0C7FB2448FFF77CFB2248FFF756
:100B1C0021FBD8F80030DB1BC01A3FF4ECAE0A22E4
:100B2C0002A902F0EBFA2648FFF76CFB02A8FFF7CC
:100B3C0069FB2448FFF766FBDDE6D8F800301A782D
:100B4C00002A3FF4D6AE01331F48C8F80030FFF737
:100B5C0059FBCEE6D8F800300F4A93427FF6C9AE67
:100B6C00013B1A48C8F80030FFF74CFBC1E60A22DB
:100B7C0002A902F0C3FA1248FFF744FB02A8FFF7E0
:100B8C0041FB1048FFF73EFBACE700BFC80000205C
:100B9C0004000020AF400008CC000020F03C00080E
:100BAC00C43A0008F43C0008CC010020AE40000818
:100BBC00E83A0008243900088C330008F83C000897
:100BCC004434000848340008043D0008003D000887
:100BDC000A2202A902F092FA1D48FFF713FB02A8A1
:100BEC00FFF710FB1B48FFF70DFBD8F80030DB1BA1
:100BFC00C7E61948FFF706FB35E71848FFF7AAFACE
:100C0C00824600283FF475AE154F144938460AF158
:100C1C00010202F093FBD8F80030D81B0AD111481E
:100C2C00FFF7F0FA57440E48C8F80070FFF7EAFADD
:100C3C005FE670470A2202A902F060FA0448FFF747
:100C4C00E1FA02A8FFF7DEFA0248FFF7DBFAE6E763
:100C5C004434000848340008A43C0008CC010020AF
:100C6C00CC000020F83C00082B4908B54A692B4BF6
:100C7C0042F040024A612A481A6882420BD0294B42
:100C8C00274A1968914227D027494FF4A472274864
:100C9C0002F054FB08BD01F500518A68244842F06B
:100CAC0001028A601A460433126883420A60F9D141
:100CBC0020481A4B90F8422090F841C0120490F84A
:100CCC00400042EA0C2202430A600968D3F843212F
:100CDC009142D4D11946D8E7174918488A6842F08E
:100CEC0001028A601A460433126883420A60F9D101
:100CFC0013480C4B90F8412090F842C0120290F827
:100D0C00400042EA0C4202430A600A68D3F84311DD
:100D1C009142B9D11946B8E70010024000F800081A
:100D2C00CFDECFDE00FC0008083D0008CC0200201E
:100D3C0040F9000800F900080030024040FD0008AE
:100D4C0000FD000800487047CC0200205D4B5E4956
:100D5C001A68F0B58A4271D05C4A4FF0000E1068E8
:100D6C00884200F0A0801846594A1169090604D53A
:100D7C005849516001F1883151605549CA68D7070B
:100D8C00FCD40224CA6802F02002CA600C614B61D8
:100D9C000B694F4A43F040030B61D3689E06FCD5A8
:100DAC0020254D4FD5603B461569474E4B4925F0E4
:100DBC00020515613E608A6807F5A07442F00102D5
:100DCC008A6053F8042BA3420A60FAD1202497F8C6
:100DDC00423197F841211B0443EA022397F8402142
:100DEC00023813430B600B68394AC7F84331136957
:100DFC00394943F00103136101F5A47C31F8023B3E
:100E0C0020F8023FD3689D06FCD56145D460F5D12E
:100E1C00BEF1000F08D000232D4AAEF80030D36885
:100E2C009B06FCD52023D360294B1A6922F00102C2
:100E3C001A611A6942F080021A61F0BD4FF0010E7E
:100E4C009C462649204D0CF5A07463468A6842F0F6
:100E5C0001028A6053F8042BA3420A60FAD19CF871
:100E6C0041219CF84201120242EA00429CF84001E6
:100E7C0002430A600A68DCF84301904215D00CF575
:100E8C008060BEF1000F09D003F58064DCF80034FB
:100E9C004FF0000EAB420FD00CF50060104B984297
:100EAC000CD0034660E79446CBE70D4B0CF5806005
:100EBC009842E646F5D101E08446C6E70148034670
:100ECC0052E700BF00F80008CFDECFDE00FC0008C0
:100EDC000020024023016745CC0200200030024074
:100EEC000000010808B54FF4A4720449044802F04C
:100EFC0025FABDE80840FFF729BF00BF083D0008F0
:100F0C00CC020020016800293BD00422F0B50F244C
:100F1C00214E01F14043A3F58433B7699B0A05794F
:100F2C0002FA03F33B43B3614FEAD50C4FEA850E4B
:100F3C0051F82C300EF01C0E04FA0EF423EA0403C4
:100F4C0041F82C304379C3B1837A032B8EBF002335
:100F5C00124A52F82330C279012A827908BF43F031
:100F6C000403012A01D143F0080351F82C2003FAA1
:100F7C000EF3134341F82C30F0BD037A13B913462A
:100F8C00F3E77047012B0CBF01224FF48032AA40CB
:100F9C0008230A61E9E700BF00100240503E000838
:100FAC0010B404689CB10122437A0039A3EB02030C
:100FBC00B3FA83F318BF01215B095B1AB3FA83F30D
:100FCC0000795B0982401B0102FA03F3236110BC18
:100FDC00704700BF03685BB19B680179427A23FAC2
:100FEC0001F000F00100012A08BF80F001007047F9
:100FFC0018467047002382B001930368A3B14FF0E9
:10100C0084420192019A03F14043103302EB4313E3
:10101C000193019B90F804C0417A03EB8C0301937C
:10102C0011B9019B40330193019802B0704700BF86
:10103C0010B5FFF787FE054C04302060FFF762FF08
:10104C0020680021BDE81040FFF7AABF140400205F
:10105C00024B01461868FFF7A3BF00BF1404002021
:10106C001C4B1A6842F480321A601A689203FCD541
:10107C001949184A086840F010000860086840F0E8
:10108C00020008605968596059685960596841F400
:10109C0080615960596821F47C115960596841F498
:1010AC00E8115960196841F08071196013689B014F
:1010BC00FCD55368074923F003035360536843F08E
:1010CC00020353604B6803F00C03082BFAD1FFF7B3
:1010DC006BB800BF00100240002002404FF6FF002A
:1010EC000349044BCA6802401343CB60704700BFEE
:1010FC0000ED00E00002FA050346022898BF4048C4
:10110C0070B498BF50F82350086888BF002570B1A0
:10111C003C4C246803B1640812B9B4FBF0F4AC6025
:10112C0040F62C06384C06FB0344C4F8100808792A
:10113C00022854D8012855D0A0F10204B4FA84F442
:10114C00640964032AB92E6926F4405C4CEA040451
:10115C002C6140F62C0C2C4E0CFB036C8CF81408F8
:10116C008879C41F012C19D94C79002C37D18CF8F3
:10117C001608A44652BB104640F62C024FF6FF71DF
:10118C0002FB0362EB6823F4B05343EA0C03EB60FD
:10119C0082F81548A2F8221870BC70478CF8160813
:1011AC004C79022C1BD8012C04D14FF4B0504FF4C5
:1011BC00C06C05E0022C1AD14FF4A0504FF4806C97
:1011CC008979082908BF8446002AD4D040F62C021D
:1011DC0002FB036383F81548002070BC70470220A3
:1011EC0070BC70474FF44054002AB2D1ABE72CB11D
:1011FC004FF480504FF0000C0124E1E7A446B9E70E
:10120C00843E0008000000202004002002282DE964
:10121C00F8434ED8284B044603EBC003D3F80480A4
:10122C00D8F80030DB0735D440F62C0600FB06F668
:10123C00DFF8889009EB0607D7F80C34D7F8085478
:10124C00C3F580631D44C5F309059D42A8BF1D4627
:10125C0015B3012387F82638FFF774FD04EB44041B
:10126C0004EB4414723497F826182044FFF798FEC8
:10127C00D7F80C3406F582661E444E44C8F80C6050
:10128C00C8F80450D8F8003043F00103C8F8003017
:10129C00C7F81858BDE8F883094B53F820301A6882
:1012AC0022F040021A60DA6842F04002DA60BDE8CF
:1012BC00F88300231B68FFDE603E0008200400203A
:1012CC00843E00082DE9F8430646FFF73BFD06EB8C
:1012DC00460303EB4313032E03F1720515D103F1FF
:1012EC001A0403F17D06284F044406442046FFF7F8
:1012FC0009FEFFF727FD2844FFF77CFE0B34B442B0
:10130C00C7F8AC00F2D1BDE8F88340F62C021F4CB4
:10131C0003F1300802FB064403F1510903F11A06EC
:10132C007D330644C7181EE094F82418003918BF02
:10133C000121FFF735FEFFF705FD94F82518484409
:10134C00FFF72EFEFFF7FEFC94F826182844FFF753
:10135C0027FEFFF7F7FC2844FFF74CFE0B36B7428D
:10136C00C4F82808CFD03046FFF7CCFDFFF7EAFCD5
:10137C00D4E9002301329B1AC3F30903B3F5007FB0
:10138C004044D1DC0021D4E720240020200400209C
:10139C00B1B32DE9F0471B4D8246894640F2FF362A
:1013AC0040F2FE384FF48067286815E0D0F5806471
:1013BC0000D16F604C4528BF4C4608305146224640
:1013CC00284401F0BBFF2868B9EB04092044C0F3A2
:1013DC000900A244286011D06C68331A1C44C4F371
:1013EC000904A342E2DB002CE4D14345C8BF40F220
:1013FC00FF346860D8BFC0F58064DBE7BDE8F087D8
:10140C00704700BF20040020504A70B51168504D41
:10141C0001F40051D5F80C345160D5F81808516C12
:10142C000344C3F3090321F00101C5F80C345164E2
:10143C0095F81D282AB1D5F80824D21AC2F309024E
:10144C0052B3444A127872BB404ED5F80844716CC2
:10145C00CA0720D4C3F580631C44C4F309049C421E
:10146C00A8BF1C46002C5FD0012385F82638FFF757
:10147C0069FC95F826187230FFF792FDD5F80C34FC
:10148C00C5F8184803F582632B443365B464736C58
:10149C0043F00103736470BD012285F81E282D4AA8
:1014AC001278002AD0D0002385F82638FFF74AFCA2
:1014BC0095F826187230FFF773FD022001F094FAAC
:1014CC00D5F80824D5F80C3401329B1AC3F3090360
:1014DC00984233D301F0EEFCD5F80C04D5F808444F
:1014EC00C0F580631C44C4F309049C42A8BF1C468D
:1014FC00002CD0D000F5826021462844FFF7D8F9A3
:10150C00D5F80C24D5F808341444C4F30900C0F5FC
:10151C0080621344C3F309049442A8BF1446C5F86F
:10152C000C04002CE6D170BD0B4B1A6822F0400263
:10153C001A60DA6842F04002DA6070BD4FF48062E3
:10154C000649022001F004FBC6E700BF0000024080
:10155C00200400201C040020003801402808002032
:10156C002B4AF8B511682B4C01F00071D4F8383CBB
:10157C0004F580565160716CD4F8345C0B44D2F88D
:10158C008010C3F3090321F00101C4F8383CC2F800
:10159C00801096F849201AB1E91AC1F3090191B3E8
:1015AC001B4FD7F88010CA0722D4C3F580631D44A3
:1015BC00C5F309059D42A8BF1D46D5B1012386F888
:1015CC005230FFF7BFFB96F85210D530FFF7E8FC0E
:1015DC00D4F8383C756403F63C431C44C7F88C4083
:1015EC00C7F88450D7F8803043F00103C7F8803037
:1015FC00F8BD094B1A6822F040021A60DA6842F012
:10160C004002DA60F8BD012186F84A10C8E700BF35
:10161C00000002402004002000440040274A70B51E
:10162C001168274C01F02001D4F864345160D4F8CF
:10163C007008D1690344C3F3090321F00101C4F814
:10164C006434D16194F87528D4F860541AB1E91A4D
:10165C00C1F3090171B3194EF169CA071FD4C3F55F
:10166C0080631D44C5F309059D42A8BF1D46BDB14D
:10167C00012384F87E38FFF765FB94F87E1800F59B
:10168C009C70FFF78DFCD4F864340E4AC4F8705883
:10169C001344B3623562F36943F00103F36170BD27
:1016AC00094B1A6822F040021A60DA6842F04002D4
:1016BC00DA6070BD012184F87618CCE70000024096
:1016CC002014002088180020004800400E4A13689F
:1016DC00590608D501200D49D1F828180860D168A1
:1016EC0021F04001D160DA070AD50849064AB1F861
:1016FC00203843F02003A1F8203813689B06FCD453
:10170C00014B5B68704700BF00380140200400208B
:10171C000D4A1368590607D501200C49496D08601C
:10172C00D16821F04001D160DA070AD50749064A91
:10173C00B1F84C3043F02003A1F84C3013689B06F1
:10174C00FCD4014B5B68704700440040201400201F
:10175C000E4A1368590608D501200D49D1F8801896
:10176C000860D16821F04001D160DA070AD5084938
:10177C00064AB1F8783843F02003A1F8783813689A
:10178C009B06FCD4014B5B68704700BF00480040CF
:10179C0020140020022804DC082970B50D4601D95C
:1017AC0070BD70470446FFF7CDFA05EB850304EBDB
:1017BC00440205EB430302EB42161A33334418443C
:1017CC00FFF7A0FB022D18D0052D33D0082DE7D143
:1017DC00FFF7B8FA40F62C021D4B723602FB0434AC
:1017EC00304494F82618FFF7DBFBFFF7ABFA3044D4
:1017FC00FFF700FCC4F8280870BDFFF7A3FA40F609
:10180C002C0106F13002104401FB04F2104B9958E4
:10181C001A44536801315B1AC3F30903B3F5007F13
:10182C0014DD92F82418003918BF0121BDE870406E
:10183C00FFF7B6BBFFF786FA40F62C01044B513686
:10184C0001FB0433304493F82518EFE70021EDE752
:10185C002004002008B50020FFF734FD0120FFF71D
:10186C0031FDBDE808400220FFF72CBD2DE9F84FF3
:10187C00FFF768FA00228D498D4B0A70DB684FF434
:10188C008056C3F30223C3F107011C1D042928BF92
:10189C000421062C88BFDA1E4FF0FF338B40DB434C
:1018AC0003F001039340834C1B01814DDBB284F8A0
:1018BC000C332660EB684FF48046C3F30223C3F16C
:1018CC0007011A1D042928BF0421062A88BFDA1E25
:1018DC004FF0FF3303FA01F36FEA030398BF0022C2
:1018EC0003F001039340734C1B01714DDBB284F880
:1018FC000E332660EA684FF4003EC2F30222C2F1B6
:10190C00070A131DBAF1040F28BF4FF0040A062B67
:10191C004FF0FF3303FA0AF36FEA030394BF00227C
:10192C00033A03F001039340DFF888C11B01DFF891
:10193C008891DBB28CF81133CCF800E0D9F8183070
:10194C005E4943F00103C9F818304B680F3043F07F
:10195C0000734B60FFF7D6FAD9F81830002543F422
:10196C008043C9F81830D9F81C30554C43F4C023C7
:10197C00C9F81C30D9F81430524E43F00103C9F8A1
:10198C001430D9F80C3041F6840243F48043C9F882
:10199C000C30D9F81030294643F40033C9F8103014
:1019AC00D9F81030A4F1080043F48023C9F81030A2
:1019BC00D9F80C3042F2080B23F48043C9F80C30F0
:1019CC00D9F81030DFF8008123F40033C9F8103057
:1019DC00D9F8103023F48023C9F8103001F074FCCE
:1019EC00B1462846FFF76EFC59F8043BD8F80010B6
:1019FC00DA68D8F8046042EA0B02DA605A6942F0FD
:101A0C00C1025A61002D4DD05A6942F400725A61DC
:101A1C002E4A126852082E4F0020A7FB0272920A1F
:101A2C009A604FF416524FF0080E4FF6FF7A4FF4AF
:101A3C00806CC4F808281A69043322F44052DA6026
:101A4C0084F80EE884F80C089A68013522F4B05238
:101A5C009A6084F80D080A68A4F81AA842F4855212
:101A6C000A608B60CC60C1F804C03268032D42F070
:101A7C0092023260F04404F62C04B360B1D12025FC
:101A8C00402480210B4B0A4AD66883F825035D60FD
:101A9C00D56883F826035C60D26883F82703596005
:101AAC00BDE8F88F094A1268B5E700BF1D04002095
:101ABC0000ED00E000E100E00010024000000140F9
:101ACC0028040020843E0008603E0008000000202E
:101ADC00B5814E1BF0B54FF0010E4FF480621C49DE
:101AEC001C4B81F800E0996DDFF86CC021F001010E
:101AFC009965C3F864C0DA65996D184F41EA0E0117
:101B0C009965F9680CF62C0641F48A71F960D96E66
:101B1C00134D21F00101D9669E671A67D96E06F63E
:101B2C002C0441EA0E01D966E9680E4841F48A7129
:101B3C00E960196B21F001011963DC635A631A6BBC
:101B4C0042EA0E021A63C36843F48A73C360F0BDA1
:101B5C001D04002000000240280400200038014031
:101B6C0000440040004800404FF0000C094B0A486C
:101B7C0083F800C0C368094923F40053C360CB68E1
:101B8C00074A23F40053CB60D36823F40053D3608B
:101B9C00704700BF1D040020003801400044004085
:101BAC00004800403F4B1B7803B970472DE9F047C4
:101BBC00FFF7C8F83C4A80461368002B56D1DFF873
:101BCC00EC9014234E46462740F26F1A1360FFF731
:101BDC00B9F805463844FFF7FDF90446003C18BF38
:101BEC00012407F1160028446400FFF7F3F908B14B
:101BFC0044F0010407F121002844FFF7EBF908B188
:101C0C0044F0080406F50262B6F82018BFF35B8FA7
:101C1C0021F00B032343D2E85F0F884203D1C2E8C3
:101C2C00553F002DF7D1BFF35B8FEDD1633757458F
:101C3C0006F62C06CBD108F10F00FFF7CBF91C4CA4
:101C4C002378984214D0ABB100221A4B1A49DB6DA1
:101C5C00C3F58063C9E90033CB6843F00403CB6060
:101C6C00C9F80824C9F80C24227001E0013B136068
:101C7C00BDE8F0871049C9F80030CA68C9F80430CB
:101C8C0022F00402CA6001F548414A6CC9F80834D4
:101C9C0022F00102C9F80C344A64FEF7E3FD01237B
:101CAC002370E5E71D040020180400202004002008
:101CBC001C040020000002400038014002282DE9DD
:101CCC00F041044605D0042817D006283CD0BDE8C6
:101CDC00F0810129FBD1434DD5F80C84D5F808646B
:101CEC0000F082FE404B1F7897BB0136A8EB06062E
:101CFC00C6F3090605F5816815E040F6344801275E
:101D0C000129E4D140F62C03364D204603FB075342
:101D1C00D3F80824D3F80C64531CF61AA844C6F361
:101D2C00090600F061FE864207D340F62C0303FB44
:101D3C00075393F81D38002B46D040F62C0303FBB9
:101D4C00075383F81748C2E74FF4A3580227D7E785
:101D5C00204600F049FED5F80824D5F80C340132A1
:101D6C009B1AC3F30903984239D24FF48062204680
:101D7C0005F5816100F0ECFED5F80C04D5F80834BB
:101D8C00C0F58062D418C4F309049442A8BF144669
:101D9C00002C9CD000F5826021462844FEF788FD7B
:101DAC00D5F80C24D5F808341444C4F30900C0F554
:101DBC0080621344C3F309049442A8BF1446C5F8C7
:101DCC000C04002CE6D182E7414620464FF4806299
:101DDC0000F0BEFE3846BDE8F041FFF717BA01F03F
:101DEC0069F8C9E7200400201C0400202DE9F84301
:101DFC000346007800F07F00212802D00220BDE8C5
:101E0C00F8839888C0B2002858D002285BD00428E8
:101E1C00F4D1F62441F6680E40F21717022093F81D
:101E2C0001C0BCF1210F15D0BCF1220F1BD0BCF1AD
:101E3C00200FE3D1DA88072AE0D1002849D1314AB2
:101E4C001278002A45D0024603F10801BDE8F84398
:101E5C00FFF752B9DB88072BD0D12B4870440860B0
:101E6C0000201360CBE740F62C0600FB06F6B3F817
:101E7C000280DFF8949008F0010309EB060585F861
:101E8C002538FEF75FFF08F0020895F8251838444E
:101E9C00FFF786F885F82488FEF754FF59F80620DA
:101EAC006B6801329B1AC3F30903B3F5007F20441E
:101EBC0022DC0021FFF774F80020A0E730244FF457
:101ECC00016E5127ABE7932441F23C0EB42701205D
:101EDC00A5E740F62C020C4902FB0011D1F80824AE
:101EEC00D1F80C44121BC2F30902002AACD0012415
:101EFC00224681F81D48A7E795F82418003918BF29
:101F0C000121D7E71C040020200400202DE9F04F0C
:101F1C004FF030080024DFF880B2DFF880A287B0E1
:101F2C0040F62C0707FB04F3019314B99C4B1B7868
:101F3C004BBBDBE900659B4B761B53F83430C6F387
:101F4C0009065B68C3F58069FEF7FCFEDBF8003020
:101F5C00A9EB05055A1CDBF80430C5F309059B1ADF
:101F6C00C3F30903B3F5007F404440F3B2809BF800
:101F7C002418003918BF0121FFF712F8B542C0F040
:101F8C00AE80CBF80090BBF82058BBF82238AB429F
:101F9C0045D11AF8019BDBF800704846DBF8046069
:101FAC0000F02CFD054640B3BA1BC2F30902002A0F
:101FBC0000F0AA809BF81618072900F0B1804FF4A6
:101FCC0080625946484600F01DFE281AB0FA80F08F
:101FDC0040098BF81C08FEF7B5FEDBF800305A1CE4
:101FEC00DBF804309B1AC3F30903B3F5007F00F34D
:101FFC00CA8000214044FEF7D3FF9BF81E38002B0B
:10200C005DD19BF8170800283ED10134032C0BF648
:10201C002C0B08F1630883D107B0BDE8F08F42F2B6
:10202C00A10303930223ADF812305F4BADF81450AB
:10203C001B5DADF810305D4B1E5D304600F0DEFCD4
:10204C000028A6D030460A2203A900F03FFD0A283A
:10205C0040F09F8005F060010BF50263BBF820286F
:10206C00BFF35B8F81EA0200D3E85F6F964203D126
:10207C00C3E8570F002FF7D1BFF35B8FEED125F0DC
:10208C006005ABF8225884E7DBF808345A1CDBF8FF
:10209C000C349B1AC3F3090500F0A6FC8542B4D39B
:1020AC004FF480620BF581619BF8170800F050FD2E
:1020BC002046FFF7ABF800238BF81738A5E7002272
:1020CC0020460BF50161FFF717F80023ABF81D381C
:1020DC0097E70021FEF764FFB542BFF452AF0BF552
:1020EC000263BBF82028BFF35B8F42F04001D3E8BA
:1020FC005F0F904203D1C3E8551F002DF7D1BFF3FA
:10210C005B8F3FF43EAFECE79BF81C1800293FF4C3
:10211C0074AF484611468BF81C2800F0D7FC6CE7CE
:10212C00AA4228BF2A46DBF80410019E1A4B0E4423
:10213C0008361E44531E022B12D9314622F00307D7
:10214C003744086800F07F3041F8040BB942F8D1ED
:10215C0022F003018A420E44A3EB01033FF42FAF9C
:10216C00327802F07F023270002B3FF428AF727885
:10217C00012B02F07F0272703FF421AFB27802F0B3
:10218C007F02B2701BE79BF82418003918BF01219D
:10219C0030E700F08FFEFCE620040020783E0008BB
:1021AC001C040020603E00087C3E0008803E0008B5
:1021BC000121044A0448537843F08003A0F84C30C2
:1021CC0011707047E01C0020005C004038B5174CC3
:1021DC002378042B27D018D8023B012B1FD8D4E925
:1021EC000B12002000F072FCD4E90B2302441B1AE2
:1021FC00C4E90B2343B92378022B03D00C4B5B7936
:10220C00984201D00423237038BD052B07D100253B
:10221C00A36B2570002BF7D09847A56338BDBDE89C
:10222C00384000F047BE0623237038BDA41C0020A4
:10223C00743F0008002208B5044B1A809A70FFF70F
:10224C0015FBBDE8084000F069B900BFE01C002098
:10225C0010B5074C2378022B06D080210023054AA9
:10226C00A2F84C10237010BDFFF77EFCF5E700BF01
:10227C00E01C0020005C0040704700BFFFF792BCE0
:10228C00FFF744BE10B58446407882B0092806D8C2
:10229C00DFE800F014050505051B260535080220AE
:1022AC0002B010BDBCF80230DBB2012BF7D1294AC9
:1022BC0011789370022929D10020F1E700230A68D4
:1022CC0013700A68537002B010BD0020BCF80220D5
:1022DC00204C214902F07F026270196002B010BDDF
:1022EC00BCF802301C0A022C21D0032C12D0012C79
:1022FC00D5D11A4B00201C780B601460D0E700205D
:10230C00144A0B6892781A7002B010BDFFF7E2FB0A
:10231C000020C5E7DBB2032B0FD0062BBFD8104C27
:10232C00002054F823300B601B781360B8E70D4B7A
:10233C0000205C880B601460B2E7CDE9001200F05D
:10234C00C1FD03460099019A0B601B7800201360B5
:10235C00A6E700BFE01C0020BD210008603F00087C
:10236C0008000020903E00082DE9F04705460E4677
:10237C0017469846FFF73AFD02280BD195F800C096
:10238C001CF0600906D10CF01F04012C22D0022C89
:10239C000AD00CB1BDE8F08743463A463146284690
:1023AC00BDE8F047FFF76EBF6C78A98804F0FD0319
:1023BC00012B01F07F0501F0800114D0002CE9D134
:1023CC00284600F0CBFC0246336820461A7033686E
:1023DC005C70DFE76B78002BDCD132681846137029
:1023EC0032685370D6E7A4F10302B2FA82F228469F
:1023FC00520900F069FC4846CCE700BF00286ED1BA
:10240C00032938B504461CD0012905D0022939D03E
:10241C00BDE8384000F04EBD3C4D2B78062B53D018
:10242C0045D883B1012B42D1D5E90B1200F0FCFA4F
:10243C002B6B984258D0EA6A1B1A0244C5E90B234D
:10244C0038BD324D2870324C08222146002000F055
:10245C00EBFA08282BD195F90120B5F8073004F1D7
:10246C000801002AC5E90B136C630FDB73B1202B39
:10247C001DD801232B7038BD2A6BDB889A4240D2C1
:10248C0003232B70BDE83840FFF7A0BE2046202464
:10249C00204B00F10802EA62A3F10C01A3F108023F
:1024AC002C63FFF761FF024600B3012819D000210D
:1024BC000122084600F008FC01228021002000F0D7
:1024CC0003FC00232B7038BD0246014600F0ACFA29
:1024DC00AB6B2C70002BB3D09847AC6338BD00F0BD
:1024EC00E9BC05232B7038BD686BD0E76B6B93F997
:1024FC0000100029C0DB014600F0E8FA05232B7020
:10250C0038BD88BF2B6302232B70BBE7A41C0020B3
:10251C00A51C0020DC1C002000F014BA4FF0700C3D
:10252C00002110B4B04BB1485C791A7983B0644483
:10253C003E2AADF80610A0F800C08180048100F29C
:10254C009181510201F47C418181196804EB020CE8
:10255C00032909D8DFE811F0F1010400ED01E801CD
:10256C004FF48062ADF806200020BDF80620A0498B
:10257C0092B242F4405242F020020A805A7C197CFA
:10258C009A4C62443E29ADF80600A4F810C0A08213
:10259C00228300F25A81480200F47C40A083D86860
:1025AC001144032809D8DFE810F0BA010400B60181
:1025BC00B1014FF48062ADF806204FF0000CBDF86D
:1025CC0006208B4892B242F4405242F021028280A3
:1025DC005A7F187F854C0A443E28ADF806C02184EA
:1025EC00A4F824C0228500F22381410201F47C412D
:1025FC00A18599691044032909D8DFE811F08201FB
:10260C0004007E0179014FF48062ADF806204FF092
:10261C00000CBDF80620764992B242F4405242F0CA
:10262C0022020A8193F8292093F828106F4C024457
:10263C003E29ADF806C02086A4F834C0228700F2EB
:10264C00EA80480200F47C40A087586A11440328B1
:10265C0009D8DFE810F04801040044013F014FF4B1
:10266C008062ADF806200024BDF80620604892B2C6
:10267C0042F4405242F02302828193F8352093F8C1
:10268C0034C00A4400F5806092B2BCF13E0FADF844
:10269C000640A0F84010A0F84440A0F8482000F2F2
:1026AC00A9804FEA4C2101F47C41A0F84C10196B25
:1026BC00624492B2032909D8DFE811F00701040043
:1026CC000301FE004FF48061ADF806100024BDF844
:1026DC000610474889B241F4405141F0240101826F
:1026EC0093F8410093F840C04049104480B2BCF1CB
:1026FC003E0FADF80640A1F85020A1F85440A1F8C7
:10270C00580060D84FEA4C2202F47C42A1F85C20BD
:10271C00DA6B604480B2032A07D8DFE802F0C80203
:10272C00C4BF4FF48062ADF806204FF0000CBDF82A
:10273C0006202F4992B242F4405242F025028A827E
:10274C0093F84D1093F84C20284C014489B23E2A42
:10275C00ADF806C0A4F86000A4F864C0A4F8681032
:10276C002BD95209013A920292B2A4F86C20B4F817
:10277C006C206FEA42426FEA524292B2A4F86C208B
:10278C009B6C032B06D8DFE803F0847F027A0023CE
:10279C00ADF806304FF41E408021BDF80630144AC7
:1027AC009BB243F4405343F026031383A2F840003A
:1027BC00A2F84C1003B010BC7047520202F47C42D9
:1027CC00A4F86C20DCE74FEA5C12013A920292B258
:1027DC00A1F85C20B1F85C206FEA42426FEA5242E9
:1027EC0092B2A1F85C2093E7743F000800600040AF
:1027FC00005C00404FEA5C110139890289B2A0F8F3
:10280C004C10B0F84C106FEA41416FEA514189B25B
:10281C00A0F84C104BE748090138800280B2A08721
:10282C00A08F6FEA40406FEA504080B2A0870CE75F
:10283C0041090139890289B2A185A18D6FEA414113
:10284C006FEA514189B2A185D3E64809013880026B
:10285C0080B2A083A08B6FEA40406FEA504080B2F8
:10286C00A0839CE651090139890289B28181818951
:10287C006FEA41416FEA514189B2818165E64FF4BB
:10288C00C063ADF8063085E74FF48063ADF80630D1
:10289C0080E74FF40073ADF806307BE74FF4C0626D
:1028AC00ADF8062041E70022ADF806203DE74FF4D5
:1028BC000072ADF8062038E74FF4C061ADF8061091
:1028CC0004E70021ADF8061000E74FF40071ADF8F5
:1028DC000610FBE64FF4C062ADF80620C3E60022FA
:1028EC00ADF80620BFE64FF40072ADF80620BAE64C
:1028FC004FF4C062ADF8062089E60022ADF8062040
:10290C0085E64FF40072ADF8062080E64FF4C06205
:10291C00ADF8062051E60022ADF806204DE64FF446
:10292C000072ADF8062048E64FF4C062ADF8062000
:10293C001AE60022ADF8062016E64FF40072ADF848
:10294C00062011E64FF6FF732148224A816941F0B7
:10295C0004018161516821F440215160516841F4B6
:10296C000031516000BF013BFCD14FF48010194B7A
:10297C0019495A6822F440325A605A6842F480224B
:10298C005A60C1F88000BFF34F8FBFF36F8F134AAB
:10299C00134B12689A4204D00D4A536843F48003D7
:1029AC00536000224FF0010C4FF480600849CB6952
:1029BC0043F40003CB610B4BA3F840C0A3F85020A9
:1029CC00A3F84C20A3F84420A3F84000704700BFA4
:1029DC00001002400008014000E100E0000000206F
:1029EC0000A24A04005C0040000100F1804000F5A8
:1029FC00C0408089C0F30900704700BF830003F119
:102A0C00804303F5B8431B88420003F03003202BAE
:102A1C0001D000207047034B024403EB820358792A
:102A2C00704700BF743F0008030103F1804303F5B6
:102A3C00C0432DE9F041B3F808C09C89800000F137
:102A4C008045C4F3090090421FFA84F8C4F348048B
:102A5C0036D89A891FFA8CFC4FEA4C0C0CF1804743
:102A6C0002F47C42661E05F5B84507F5C0479A810D
:102A7C00B6B294B10A463B46134C644404EB860E42
:102A8C009C460433BCF800C0734522F802CBF7D146
:102A9C00013607EB860701EB460118F0010F1CBF4E
:102AAC003B880B702B8823F0F0039B049B0C83F466
:102ABC00405343F4004343F080032B80BDE8F08186
:102ACC004FF0FF30FAE700BF04600040F0B5044659
:102ADC001E4B00EB400003EB80035879230190421E
:102AEC0028BF104603F1804202F5C0421588A400AD
:102AFC00ADB26D0004F1804405F18045470804F542
:102B0C00B84405F5C0451FD0AC4601EB470631F87B
:102B1C0002EB0CF1040CB1422CF804ECF7D105EBF0
:102B2C008705C30744BF33782B8083B293802388F7
:102B3C0023F0C0031B051B0D83F0300343F400434B
:102B4C0043F080032380F0BD0E46EAE7743F000893
:102B5C00030103F1804303F5C0432DE9F0471E89BF
:102B6C00800000F18047B6B298899C89760006F106
:102B7C00804604F47C44C0F348081FFA80F907F53A
:102B8C00B84706F5C0469C81C0F30900B8F1000FA8
:102B9C001ED035460B6808F1FF3E541E35F804CBA9
:102BAC0001EB030A013323400EF1FF3E8AF808C003
:102BBC00BEF1FF3F01EB030A4FEA1C2C03F10103AA
:102BCC008AF808C003EA0403E8D106EB88060B6018
:102BDC0019F0010F07D00B6835885C1C013A2240B4
:102BEC000B441D720A603B8823F0F0039B049B0C82
:102BFC0083F4405343F4004343F080033B80BDE82F
:102C0C00F08700BF2F4B2DE9F04F541E00EB400214
:102C1C0003EB82034FEA001980005B7900F18046D8
:102C2C00D1E90002801A2040984228BF184609F1C9
:102C3C00804909F5C049B9F8003045089BB25B00E2
:102C4C0003F1804806F5B84608F5C04805B3C646FA
:102C5C004FEA850A0AF1804707F5C04705F1FF3BAB
:102C6C001F44531C23400A44CD1892F808C02D7AF7
:102C7C0001334CEA052C75460EF1040EBE4503EAF1
:102C8C000402A5F800C0ECD14A6028F82BC0D0444F
:102C9C00C30706D58B181B7A01322240A8F80030E6
:102CAC004A6083B2A9F80430338823F0C0031B05B3
:102CBC001B0D83F0300343F4004343F08003338057
:102CCC00BDE8F08F743F0008830003F1804303F5E7
:102CDC00B843188800F4C060B0F5806F16D0802916
:102CEC00198810D001F4405181B1F2B11A8822F048
:102CFC00F0029204920C82F4805242F4004242F0B0
:102D0C0080021A80704701F0300101B97047BAB1E6
:102D1C001A8822F0C0021205120D82F0100242F441
:102D2C00004242F080021A8070471A8822F0F002AA
:102D3C005204520C42F4004242F080021A80704756
:102D4C001A8822F080021205120D82F0200242F441
:102D5C00004242F080021A80704700BF800000F1F0
:102D6C00804000F5B840008880290BBF00F030008F
:102D7C0000F440501038A0F58050B0FA80F04009B3
:102D8C00704700BF474A4849B2F8443010B59BB26F
:102D9C0018040B8013D413F4806050D11C0567D435
:102DAC00D90456D49B052ED54FF6FF533F49A2F8B4
:102DBC0044300B78002B6ED1FFF760FA23E0B2F8A9
:102DCC00440000F00F00830003F1804303F5B84387
:102DDC001988420009061AD540F20F71344CB3F829
:102DEC0000C0024404EB8202946801EA0C0242F433
:102DFC0000421A800CB10221A04714222B4B012057
:102E0C001A70FEF725F9BDE81040FFF739BA40F209
:102E1C000F7C19881C8802440CEA040C4CF0800CC2
:102E2C00A3F800C0224B11F4006F03EB82039B68E4
:102E3C000CBF01210321002BDFD09847DDE74FF6B3
:102E4C00FF33A2F84430FFF7F5F9BDE81040FFF767
:102E5C0017BA4EF6FF73A2F84430B2F8403023F0A4
:102E6C0008031B041B0CA2F84030FFF705FACAE755
:102E7C004FF2FF73A2F84430B2F840309BB243F0EB
:102E8C000803A2F84030FEF7E3F8FFF7E1F9BDE8DC
:102E9C001040FFF7F5B9013BD8B20870FEF7D8F82F
:102EAC008AE700BF005C0040E41C0020E61C002008
:102EBC00743F000808B572B60120FEF7C9F800BFD0
:102ECC00FDE700BF10B4634C87B00DF1040C0FCCC0
:102EDC00ACE80F00604B0DF1180C93F8E81093F868
:102EEC00E9200C4601F00F0118310CEB1414694465
:102EFC005A4814F8144C11F8141C02F00F02183232
:102F0C00448081806A4493F8E91012F8144C0CEB5D
:102F1C001112048112F8141C93F8EA20C1800CEBF6
:102F2C00121212F8142C428193F8EB2093F8EA1049
:102F3C00144601F00F0102F00F02183118326944E7
:102F4C000CEB14146A4411F8141C14F8144C12F8F9
:102F5C00142CC4810282818193F8EC100A4602F091
:102F6C000F0218320CEB11116A4411F8141C12F8F0
:102F7C00142C4182828293F8ED1093F8EE200C46CB
:102F8C0001F00F0118310CEB1414694414F8144CB3
:102F9C0011F8141C02F00F021832C48201836A4427
:102FAC0093F8EE1012F8144C0CEB1112848312F8F7
:102FBC00141C93F8EF2041830CEB121212F8142C12
:102FCC00C28393F8F02093F8EF10144602F00F022E
:102FDC0018320CEB14146A4414F8144C12F8142C18
:102FEC004484828493F8F12001F00F011831694474
:102FFC000CEB121211F8141C12F8142C0184C2845C
:10300C0093F8F22093F8F110144601F00F0102F03E
:10301C000F021831183269440CEB14146A4411F87D
:10302C00141C14F8144C12F8142C4485828593F853
:10303C00F3200185134603F00F0318330CEB121227
:10304C006B4412F8142C13F8143CC285038607B099
:10305C0010BC70477840000800F7FF1F24000020C8
:10306C00FDF7A0F80B480C490C4A002302E0D45899
:10307C00C4500433C4188C42F9D3094A094C0023B8
:10308C0001E013600432A242FBD300F02BF9FDF7F0
:10309C0069F8704700000020AC000020B84100081F
:1030AC00AC000020241E0020FEE70000034A044B65
:1030BC0011681B780B441360704700BFE81C00209C
:1030CC00580000200A22002100F098B8931E222BF1
:1030DC0010B50C4604D900231C460B70204610BDBD
:1030EC000A2A09D1002807DA2D230B70012140424E
:1030FC00214400F08DF8F1E70021F9E7FFF7E6BF76
:10310C00012B2DE9F0478646904601D0242B06D999
:10311C0000F0E2F8162303600020BDE8F0870D46AE
:10312C0035482A4615F8014B065D16F00806F8D10D
:10313C002D2C2ED101262C78951C002B57D0102B22
:10314C0009D1302C07D12A7802F0DF02582A49D154
:10315C0010236C780235002206F1004C0CF1FF3C78
:10316C00BCFBF3F9104603FB19CAA4F13007092F75
:10317C0014D83C46A34220DD571C07D0814519D3F7
:10318C0001D1A24516DB012200FB034015F8014BCF
:10319C00EBE72B2C04BF2C78951CCEE7A4F1410750
:1031AC00192F01D8373CE5E7A4F16107192F04D892
:1031BC00573CDFE74FF0FF32E8E7531C08D12223DE
:1031CC006046CEF80030B8F1000FA6D0691E06E0BC
:1031DC0006B14042B8F1000F9FD0002AF6D1C8F8D2
:1031EC0000109AE73024002BB5D10823B3E7302C1C
:1031FC00A9D00A23AFE700BFAF40000813460A4628
:10320C00014602480068FFF77BBF00BFA800002002
:10321C00F0B58BB005460B466E461D4C04F1200CE8
:10322C00374620686168083403C764453E46F7D1C9
:10323C00217920683971911E222938604FF00001E4
:10324C0004D919700B4618460BB0F0BD581E8446B5
:10325C00B5FBF2F702FB175628366E4416F8286CAD
:10326C000C460CF8016F2E46B2423D4601F10101AD
:10327C00EED900225A541919A51AAA42E3DA10F809
:10328C00015F0E780132067001F80159F4E700BFB6
:10329C0089400008884210B501EB020402D984422F
:1032AC00234607D8431EA14208D011F8012B03F87E
:1032BC00012FF8E7014602448A4200D110BD13F8F1
:1032CC00014D02F8014DF7E703460244934200D149
:1032DC00704703F8011BF9E7014B1868704700BFF2
:1032EC00A800002070B500260C4D0D4C641BA410DA
:1032FC00A64209D100F030F800260A4D0A4C641B96
:10330C00A410A64205D170BD55F8043B9847013670
:10331C00EEE755F8043B98470136F2E7B041000858
:10332C00B0410008B0410008B4410008034611F850
:10333C00012B03F8012B002AF9D170470A44914262
:10334C0000F1FF3300D1704710B511F8014B9142D9
:10335C0003F8014FF9D110BDF8B500BFF8BC08BC9B
:10336C009E467047F8B500BFF8BC08BC9E46704737
:10337C000000000000000000010203040607080919
:10338C0068656C70000000003A2000007278000044
:10339C00616C6C0073686F770000000055415254EB
:1033AC00000000003A000000696E2C2000000000B4
:1033BC006F75742C200000006163746976652000C1
:1033CC002C20000070756C6C200000006F75747000
:1033DC00757420006E2F6100727473006374730037
:1033EC0064737200647472006463640074786100C6
:1033FC006F75747075740000616374697665000094
:10340C0068696768000000006C6F770070756C6C01
:10341C0000000000666C6F6174696E67000000004C
:10342C00646F776E00000000736176650000000029
:10343C0072657365740000001B5B000044000000A3
:10344C0073686F777320746869732068656C70207B
:10345C006D6573736167652C2075736520226865D3
:10346C006C7020636F6D6D616E642D6E616D652285
:10347C0020746F2067657420636F6D6D616E642DB1
:10348C0073706563696669632068656C7000000021
:10349C0055736167653A2068656C70205B636F6D6E
:1034AC006D616E642D6E616D655D0000636F6E669F
:1034BC00696700007361766520616E6420726573C4
:1034CC00657420636F6E66696775726174696F6E7F
:1034DC0020706172616D7465727320696E207468FE
:1034EC00652064657669636520666C617368206D20
:1034FC00656D6F727900000055736167653A2063E2
:10350C006F6E66696720736176657C72657365742E
:10351C000D0A5573653A2022636F6E6669672073D6
:10352C006176652220746F207065726D616E656EB8
:10353C00746C7920736176652064657669636520A7
:10354C00636F6E66696775726174696F6E2E0D0AB2
:10355C005573653A2022636F6E66696720726573D6
:10356C0065742220746F20726573657420646576AF
:10357C0069636520636F6E66696775726174696FE4
:10358C006E20746F2064656661756C742E0000008B
:10359C00756172740000000073657420616E6420A4
:1035AC0076696577205541525420706172616D6562
:1035BC00746572730000000055736167653A20757D
:1035CC0061727420706F72742D6E756D6265727C91
:1035DC00616C6C2073686F777C7369676E616C2D9E
:1035EC006E616D652D3120706172616D2D312076AB
:1035FC00616C75652D31202E2E2E205B70617261F1
:10360C006D2D6E2076616C75652D6E5D205B73691A
:10361C00676E616C2D6E616D652D32202E2E2E5DC8
:10362C000D0A55736520227561727420706F727467
:10363C002D6E756D6265727C616C6C2073686F7732
:10364C002220746F20766965772063757272656EBF
:10365C0074205541525420636F6E666967757261B0
:10366C0074696F6E2E0D0A55736520227561727424
:10367C0020706F72742D6E756D6265727C616C6CEE
:10368C00207369676E616C2D6E616D652D312070D4
:10369C006172616D2D312076616C75652D31202E36
:1036AC002E2E205B706172616D2D6E2076616C75B3
:1036BC00652D6E5D205B7369676E616C2D6E616D3F
:1036CC00652D32202E2E2E5D220D0A746F2073650F
:1036DC0074205541525420706172616D657465722D
:1036EC00732C207768657265207369676E616C2036
:1036FC006E616D6573206172652072782C20747810
:10370C002C207274732C206374732C206473722CB1
:10371C00206474722C206463642C2072692C2074D5
:10372C0078612C0D0A616E6420706172616D73207A
:10373C006172653A0D0A20206F7574707574095B9F
:10374C0070707C6F645D0D0A20206163746976650E
:10375C00095B6C6F777C686967685D0D0A20207067
:10376C00756C6C09095B666C6F6174696E677C754E
:10377C00707C646F776E5D0D0A4578616D706C6559
:10378C003A2022756172742031207478206F757420
:10379C00707574206F6422207365747320554152C8
:1037AC005431205458206F7574707574207479706E
:1037BC006520746F206F70656E2D647261696E0D7B
:1037CC000A4578616D706C653A20227561727420BF
:1037DC00332072747320616374697665206869673D
:1037EC006820646364206163746976652068696726
:1037FC00682070756C6C20646F776E2220616C6C25
:10380C006F777320746F20736574206D756C746999
:10381C00706C6520706172616D6574657273206186
:10382C0074206F6E63652E0076657273696F6E001F
:10383C007072696E74206669726D7761726520763C
:10384C00657273696F6E000055736167653A207617
:10385C00657273696F6E0000757000007070000007
:10386C006F6400007478000072690000683800080A
:10387C006C3800080C34000814340008203400089C
:10388C00643800082C34000898330008703800089D
:10389C00E4330008E8330008EC330008F033000888
:1038AC00F433000874380008F83300080D0A0D0AC8
:1038BC002A2A2A2A2A2A2A2A2A2A2A2A2A2A2A2A5C
:1038CC002A2A2A2A2A2A2A2A2A2A2A2A2A2A2A0D69
:1038DC000A2A20436F6E66696775726174696F6E30
:1038EC00205368656C6C2053746172746564202A73
:1038FC000D0A2A2A2A2A2A2A2A2A2A2A2A2A2A2A59
:10390C002A2A2A2A2A2A2A2A2A2A2A2A2A2A2A2A0B
:10391C002A0D0A0D0A0000008C3300084102000831
:10392C004C3400089C340008B83400082508000802
:10393C00C0340008043500089C350008D502000886
:10394C00A4350008C43500083438000825020008E6
:10395C003C3800085438000800000000000000004B
:10396C000000000000000000092D200076302E30F1
:10397C002E3000004572726F722C2063616E6E6F78
:10398C0074206368616E676520706F6C6172697416
:10399C0079206F6620616C7465726E617465206647
:1039AC00756E6374696F6E2070696E732E0D0A00EC
:1039BC004572726F722C2063616E6E6F742073652A
:1039CC0074206F7574707574207479706520666FCF
:1039DC007220696E7075742070696E2E0D0A00006D
:1039EC004572726F722C2063616E6E6F74207075ED
:1039FC006C6C207479706520666F72206F757470B2
:103A0C0075742070696E2E0D0A0000004572726F7D
:103A1C00722C20696E76616C6964206F72206D69FE
:103A2C007373696E6720617267756D656E74732C44
:103A3C0020757365202268656C7020636F6E6669F3
:103A4C00672220666F7220746865206C697374201D
:103A5C006F6620617267756D656E74732E0D0A004A
:103A6C004572726F722C206E6F2068656C702066C8
:103A7C006F72207468697320636F6D6D616E642C56
:103A8C0020757365202268656C702220746F206726
:103A9C00657420746865206C697374206F6620618E
:103AAC007661696C61626C6520636F6D6D616E64CB
:103ABC00732E0D0A000000004572726F722C206389
:103ACC006F6D6D616E64206C696E65206973207416
:103ADC006F6F206C6F6E672E0D0A00004572726F4F
:103AEC00722C20746F6F206D616E7920636F6D6D19
:103AFC00616E64206C696E6520617267756D656EB0
:103B0C0074732E0D0A0000004572726F722C2069BE
:103B1C006E76616C6964206F75747075742074793D
:103B2C0070652E0D0A0000004572726F722C2069B0
:103B3C006E76616C696420706F6C61726974792E39
:103B4C000D0A00004572726F722C20696E76616CE2
:103B5C0069642070756C6C20747970652E0D0A0088
:103B6C004572726F722C20696E76616C6964205597
:103B7C00415254206E756D6265722E0D0A00000064
:103B8C004572726F722C206E6F20617267756D6555
:103B9C006E74732C20757365202268656C702075AB
:103BAC006172742220666F7220746865206C697370
:103BBC0074206F6620617267756D656E74732E0D5F
:103BCC000A0000004572726F722C206D6973736964
:103BDC006E67206F757470757420747970652E0D16
:103BEC000A0000004572726F722C206D6973736944
:103BFC006E67207369676E616C20706172616D65B0
:103C0C00746572732E0D0A004572726F722C206DE2
:103C1C00697373696E6720706F6C61726974792E49
:103C2C000D0A00004572726F722C206D69737369F6
:103C3C006E672070756C6C20747970652E0D0A009F
:103C4C004572726F722C20657870656374656420A0
:103C5C002273686F7722206F722061207369676E00
:103C6C00616C206E616D652C20676F74206E6F74B3
:103C7C0068696E672E0D0A004572726F722C207582
:103C8C006E6B6E6F776E207369676E616C206E6100
:103C9C006D652E0D0A0000004572726F722C207536
:103CAC006E6B6E6F776E20636F6D6D616E642C2022
:103CBC00757365202268656C702220746F206765AF
:103CCC007420746865206C697374206F662061764B
:103CDC0061696C61626C6520636F6D6D616E64739C
:103CEC002E0D0A000D0A00003E0000001B5B304B3D
:103CFC00000000001B5B44001B5B43000000000045
:103D0C00001001400D010001000100000C014005F4
:103D1C00000000010100000801400A000000010041
:103D2C0000000801400901010000000100080140E9
:103D3C000F01000000010100000000000000000065
:103D4C000000000C01400700000001010000080108
:103D5C004004010000000101000C01400F000000B4
:103D6C00010100000C014003000000010100000CE7
:103D7C0001400001000000000100080140030000A8
:103D8C0000010000000801400201010000000100D8
:103D9C000801400101000000010100080140000081
:103DAC000000020100000C014004000000010100B1
:103DBC000008014005010000000101000C01400851
:103DCC00000000010100000C01400C00000001018A
:103DDC0000000C014001010000000001000C01403A
:103DEC000B000000010000000C01400A0101000062
:103DFC000001000C01400E010000000101000C014B
:103E0C00400D000000020100000C01400600000003
:103E1C000101000008014006010000000101000C36
:103E2C0001400900000001010000080140080000E9
:103E3C000001010000080140070100000000010022
:103E4C000000000002000000010000000300000060
:103E5C000200000058000240440002406C00024086
:103E6C0080000240300002401C00024002040600A8
:103E7C00000204000103050000380140004400402A
:103E8C00004800400902CF0006010080FA080B0030
:103E9C0002020200000904000001020200040524D1
:103EAC00001001052401000104240202052406006F
:103EBC00010705810310001409040100020A000027
:103ECC0000070502022000000705820220000008FE
:103EDC000B020202020000090402000102020005AA
:103EEC00052400100105240100030424020205240A
:103EFC000602030705830310001409040300020AD9
:103F0C000000000705040240000007058402400081
:103F1C0000080B0402020200000904040001020262
:103F2C0000060524001001052401000504240202EA
:103F3C000524060405070585031000140904050073
:103F4C00020A000000070506024000000705860271
:103F5C004000000012010002EF0201100912FEFFE6
:103F6C00000001020301000000000000101000001E
:103F7C0009240008030000000010000000000000ED
:103F8C000200000020200000C91C000803000000F3
:103F9C000010000000000000020000004040000083
:103FAC00C91C000803000000001000000000000005
:103FBC000200000040400000C91C00080403090472
:103FCC002C0352003200410058005A0020004B00D4
:103FDC006900720069006C006C0020004B006F00DF
:103FEC00740079006100670069006E000000000039
:103FFC00300342006C0075006500700069006C00B5
:10400C006C002000530065007200690061006C00B8
:10401C0020004D006F006E0073007400650072008C
:10402C000000000014034E004F0020005300450018
:10403C005200490041004C00000000000C035500E8
:10404C004100520054003100000000000C035500E8
:10405C004100520054003200000000000C035500D7
:10406C004100520054003300000000003031323364
:10407C0034353637383941424344454600303132C5
:10408C00333435363738396162636465666768691D
:10409C006A6B6C6D6E6F70717273747576777879FC
:1040AC007A000020202020202020202028282828CA
:1040BC0028202020202020202020202020202020EC
:1040CC00202020881010101010101010101010103C
:1040DC00101010040404040404040404041010104C
:1040EC0010101010414141414141010101010101F8
:1040FC000101010101010101010101010101101086
:10410C0010101010424242424242020202020202CB
:10411C000202020202020202020202020202101057
:10412C001010200000000000000000000000000043
:10413C000000000000000000000000000000000073
:10414C000000000000000000000000000000000063
:10415C000000000000000000000000000000000053
:10416C000000000000000000000000000000000043
:10417C000000000000000000000000000000000033
:10418C000000000000000000000000000000000023
:10419C000000000000000000000000000000000013
:0441AC00000000000F
:0441B00031010008D1
:0441B4000D010008F1
:1041B8000024F400CC000020C83F0008CC3F0008D1
:1041C800FC3F0008304000084840000858400008FC
:1041D800684000083203580058005800580058003A
:1041E8005800580058005800580058005800580007
:1041F80058005800580058005800580058005800F7
:10420800580058005800000001000000000000009D
:10421800EC1C0020541D0020BC1D002000000000E4
:104228000000000000000000000000000000000086
:104238000000000000000000000000000000000076
:104248000000000000000000000000000000000066
:0C42580000000000000000005C000020DE
:040000050800306D52
:00000001FF
